{
  "contractName": "Voting",
  "abi": [
    {
      "inputs": [
        {
          "internalType": "string",
          "name": "_name",
          "type": "string"
        }
      ],
      "stateMutability": "nonpayable",
      "type": "constructor"
    },
    {
      "inputs": [],
      "name": "admin",
      "outputs": [
        {
          "internalType": "address",
          "name": "",
          "type": "address"
        }
      ],
      "stateMutability": "view",
      "type": "function"
    },
    {
      "inputs": [],
      "name": "candidateCount",
      "outputs": [
        {
          "internalType": "uint256",
          "name": "",
          "type": "uint256"
        }
      ],
      "stateMutability": "view",
      "type": "function"
    },
    {
      "inputs": [
        {
          "internalType": "uint256",
          "name": "",
          "type": "uint256"
        }
      ],
      "name": "candidates",
      "outputs": [
        {
          "internalType": "uint256",
          "name": "id",
          "type": "uint256"
        },
        {
          "internalType": "string",
          "name": "name",
          "type": "string"
        },
        {
          "internalType": "uint256",
          "name": "voteCount",
          "type": "uint256"
        }
      ],
      "stateMutability": "view",
      "type": "function"
    },
    {
      "inputs": [],
      "name": "electionName",
      "outputs": [
        {
          "internalType": "string",
          "name": "",
          "type": "string"
        }
      ],
      "stateMutability": "view",
      "type": "function"
    },
    {
      "inputs": [],
      "name": "totalVotes",
      "outputs": [
        {
          "internalType": "uint256",
          "name": "",
          "type": "uint256"
        }
      ],
      "stateMutability": "view",
      "type": "function"
    },
    {
      "inputs": [
        {
          "internalType": "address",
          "name": "",
          "type": "address"
        }
      ],
      "name": "voters",
      "outputs": [
        {
          "internalType": "bool",
          "name": "authorized",
          "type": "bool"
        },
        {
          "internalType": "bool",
          "name": "voted",
          "type": "bool"
        },
        {
          "internalType": "uint256",
          "name": "vote",
          "type": "uint256"
        }
      ],
      "stateMutability": "view",
      "type": "function"
    },
    {
      "inputs": [
        {
          "internalType": "string",
          "name": "_name",
          "type": "string"
        }
      ],
      "name": "addCandidate",
      "outputs": [],
      "stateMutability": "nonpayable",
      "type": "function"
    },
    {
      "inputs": [
        {
          "internalType": "address",
          "name": "_voter",
          "type": "address"
        }
      ],
      "name": "authorize",
      "outputs": [],
      "stateMutability": "nonpayable",
      "type": "function"
    },
    {
      "inputs": [
        {
          "internalType": "uint256",
          "name": "_candidateId",
          "type": "uint256"
        }
      ],
      "name": "vote",
      "outputs": [],
      "stateMutability": "nonpayable",
      "type": "function"
    },
    {
      "inputs": [],
      "name": "getResults",
      "outputs": [
        {
          "internalType": "string",
          "name": "winnerName",
          "type": "string"
        },
        {
          "internalType": "uint256",
          "name": "winnerVotes",
          "type": "uint256"
        }
      ],
      "stateMutability": "view",
      "type": "function"
    }
  ],
  "bytecode": "0x608060405234801562000010575f80fd5b506040516200179938038062001799833981810160405281019062000036919062000213565b335f806101000a81548173ffffffffffffffffffffffffffffffffffffffff021916908373ffffffffffffffffffffffffffffffffffffffff160217905550806001908162000086919062000499565b50506200057d565b5f604051905090565b5f80fd5b5f80fd5b5f80fd5b5f80fd5b5f601f19601f8301169050919050565b7f4e487b71000000000000000000000000000000000000000000000000000000005f52604160045260245ffd5b620000ef82620000a7565b810181811067ffffffffffffffff82111715620001115762000110620000b7565b5b80604052505050565b5f620001256200008e565b9050620001338282620000e4565b919050565b5f67ffffffffffffffff821115620001555762000154620000b7565b5b6200016082620000a7565b9050602081019050919050565b5f5b838110156200018c5780820151818401526020810190506200016f565b5f8484015250505050565b5f620001ad620001a78462000138565b6200011a565b905082815260208101848484011115620001cc57620001cb620000a3565b5b620001d98482856200016d565b509392505050565b5f82601f830112620001f857620001f76200009f565b5b81516200020a84826020860162000197565b91505092915050565b5f602082840312156200022b576200022a62000097565b5b5f82015167ffffffffffffffff8111156200024b576200024a6200009b565b5b6200025984828501620001e1565b91505092915050565b5f81519050919050565b7f4e487b71000000000000000000000000000000000000000000000000000000005f52602260045260245ffd5b5f6002820490506001821680620002b157607f821691505b602082108103620002c757620002c66200026c565b5b50919050565b5f819050815f5260205f209050919050565b5f6020601f8301049050919050565b5f82821b905092915050565b5f600883026200032b7fffffffffffffffffffffffffffffffffffffffffffffffffffffffffffffffff82620002ee565b620003378683620002ee565b95508019841693508086168417925050509392505050565b5f819050919050565b5f819050919050565b5f620003816200037b62000375846200034f565b62000358565b6200034f565b9050919050565b5f819050919050565b6200039c8362000361565b620003b4620003ab8262000388565b848454620002fa565b825550505050565b5f90565b620003ca620003bc565b620003d781848462000391565b505050565b5b81811015620003fe57620003f25f82620003c0565b600181019050620003dd565b5050565b601f8211156200044d576200041781620002cd565b6200042284620002df565b8101602085101562000432578190505b6200044a6200044185620002df565b830182620003dc565b50505b505050565b5f82821c905092915050565b5f6200046f5f198460080262000452565b1980831691505092915050565b5f6200048983836200045e565b9150826002028217905092915050565b620004a48262000262565b67ffffffffffffffff811115620004c057620004bf620000b7565b5b620004cc825462000299565b620004d982828562000402565b5f60209050601f8311600181146200050f575f8415620004fa578287015190505b6200050685826200047c565b86555062000575565b601f1984166200051f86620002cd565b5f5b82811015620005485784890151825560018201915060208501945060208101905062000521565b8683101562000568578489015162000564601f8916826200045e565b8355505b6001600288020188555050505b505050505050565b61120e806200058b5f395ff3fe608060405234801561000f575f80fd5b506004361061009c575f3560e01c806385e8e7a71161006457806385e8e7a714610147578063a3ec138d14610165578063a9a981a314610197578063b6a5d7de146101b5578063f851a440146101d15761009c565b80630121b93f146100a05780630d15fd77146100bc5780633477ee2e146100da578063462e91ec1461010c5780634717f97c14610128575b5f80fd5b6100ba60048036038101906100b59190610925565b6101ef565b005b6100c4610437565b6040516100d1919061095f565b60405180910390f35b6100f460048036038101906100ef9190610925565b61043d565b60405161010393929190610a02565b60405180910390f35b61012660048036038101906101219190610b6a565b6104e9565b005b6101306105eb565b60405161013e929190610bb1565b60405180910390f35b61014f610707565b60405161015c9190610bdf565b60405180910390f35b61017f600480360381019061017a9190610c59565b610793565b60405161018e93929190610c9e565b60405180910390f35b61019f6107d1565b6040516101ac919061095f565b60405180910390f35b6101cf60048036038101906101ca9190610c59565b6107d7565b005b6101d96108be565b6040516101e69190610ce2565b60405180910390f35b60035f3373ffffffffffffffffffffffffffffffffffffffff1673ffffffffffffffffffffffffffffffffffffffff1681526020019081526020015f205f015f9054906101000a900460ff1661027a576040517f08c379a000000000000000000000000000000000000000000000000000000000815260040161027190610d45565b60405180910390fd5b60035f3373ffffffffffffffffffffffffffffffffffffffff1673ffffffffffffffffffffffffffffffffffffffff1681526020019081526020015f205f0160019054906101000a900460ff1615610307576040517f08c379a00000000000000000000000000000000000000000000000000000000081526004016102fe90610dad565b60405180910390fd5b5f8111801561031857506005548111155b610357576040517f08c379a000000000000000000000000000000000000000000000000000000000815260040161034e90610e15565b60405180910390fd5b600160035f3373ffffffffffffffffffffffffffffffffffffffff1673ffffffffffffffffffffffffffffffffffffffff1681526020019081526020015f205f0160016101000a81548160ff0219169083151502179055508060035f3373ffffffffffffffffffffffffffffffffffffffff1673ffffffffffffffffffffffffffffffffffffffff1681526020019081526020015f206001018190555060025f8281526020019081526020015f206002015f81548092919061041890610e60565b919050555060045f81548092919061042f90610e60565b919050555050565b60045481565b6002602052805f5260405f205f91509050805f01549080600101805461046290610ed4565b80601f016020809104026020016040519081016040528092919081815260200182805461048e90610ed4565b80156104d95780601f106104b0576101008083540402835291602001916104d9565b820191905f5260205f20905b8154815290600101906020018083116104bc57829003601f168201915b5050505050908060020154905083565b5f8054906101000a900473ffffffffffffffffffffffffffffffffffffffff1673ffffffffffffffffffffffffffffffffffffffff163373ffffffffffffffffffffffffffffffffffffffff1614610576576040517f08c379a000000000000000000000000000000000000000000000000000000000815260040161056d90610f4e565b60405180910390fd5b60055f81548092919061058890610e60565b9190505550604051806060016040528060055481526020018281526020015f81525060025f60055481526020019081526020015f205f820151815f015560208201518160010190816105da9190611109565b506040820151816002015590505050565b60605f805f90505f80600190505b600554811161064c578260025f8381526020019081526020015f206002015411156106395760025f8281526020019081526020015f206002015492508091505b808061064490610e60565b9150506105f9565b5060025f8281526020019081526020015f20600101805461066c90610ed4565b80601f016020809104026020016040519081016040528092919081815260200182805461069890610ed4565b80156106e35780601f106106ba576101008083540402835291602001916106e3565b820191905f5260205f20905b8154815290600101906020018083116106c657829003601f168201915b5050505050935060025f8281526020019081526020015f2060020154925050509091565b6001805461071490610ed4565b80601f016020809104026020016040519081016040528092919081815260200182805461074090610ed4565b801561078b5780601f106107625761010080835404028352916020019161078b565b820191905f5260205f20905b81548152906001019060200180831161076e57829003601f168201915b505050505081565b6003602052805f5260405f205f91509050805f015f9054906101000a900460ff1690805f0160019054906101000a900460ff16908060010154905083565b60055481565b5f8054906101000a900473ffffffffffffffffffffffffffffffffffffffff1673ffffffffffffffffffffffffffffffffffffffff163373ffffffffffffffffffffffffffffffffffffffff1614610864576040517f08c379a000000000000000000000000000000000000000000000000000000000815260040161085b90610f4e565b60405180910390fd5b600160035f8373ffffffffffffffffffffffffffffffffffffffff1673ffffffffffffffffffffffffffffffffffffffff1681526020019081526020015f205f015f6101000a81548160ff02191690831515021790555050565b5f8054906101000a900473ffffffffffffffffffffffffffffffffffffffff1681565b5f604051905090565b5f80fd5b5f80fd5b5f819050919050565b610904816108f2565b811461090e575f80fd5b50565b5f8135905061091f816108fb565b92915050565b5f6020828403121561093a576109396108ea565b5b5f61094784828501610911565b91505092915050565b610959816108f2565b82525050565b5f6020820190506109725f830184610950565b92915050565b5f81519050919050565b5f82825260208201905092915050565b5f5b838110156109af578082015181840152602081019050610994565b5f8484015250505050565b5f601f19601f8301169050919050565b5f6109d482610978565b6109de8185610982565b93506109ee818560208601610992565b6109f7816109ba565b840191505092915050565b5f606082019050610a155f830186610950565b8181036020830152610a2781856109ca565b9050610a366040830184610950565b949350505050565b5f80fd5b5f80fd5b7f4e487b71000000000000000000000000000000000000000000000000000000005f52604160045260245ffd5b610a7c826109ba565b810181811067ffffffffffffffff82111715610a9b57610a9a610a46565b5b80604052505050565b5f610aad6108e1565b9050610ab98282610a73565b919050565b5f67ffffffffffffffff821115610ad857610ad7610a46565b5b610ae1826109ba565b9050602081019050919050565b828183375f83830152505050565b5f610b0e610b0984610abe565b610aa4565b905082815260208101848484011115610b2a57610b29610a42565b5b610b35848285610aee565b509392505050565b5f82601f830112610b5157610b50610a3e565b5b8135610b61848260208601610afc565b91505092915050565b5f60208284031215610b7f57610b7e6108ea565b5b5f82013567ffffffffffffffff811115610b9c57610b9b6108ee565b5b610ba884828501610b3d565b91505092915050565b5f6040820190508181035f830152610bc981856109ca565b9050610bd86020830184610950565b9392505050565b5f6020820190508181035f830152610bf781846109ca565b905092915050565b5f73ffffffffffffffffffffffffffffffffffffffff82169050919050565b5f610c2882610bff565b9050919050565b610c3881610c1e565b8114610c42575f80fd5b50565b5f81359050610c5381610c2f565b92915050565b5f60208284031215610c6e57610c6d6108ea565b5b5f610c7b84828501610c45565b91505092915050565b5f8115159050919050565b610c9881610c84565b82525050565b5f606082019050610cb15f830186610c8f565b610cbe6020830185610c8f565b610ccb6040830184610950565b949350505050565b610cdc81610c1e565b82525050565b5f602082019050610cf55f830184610cd3565b92915050565b7f4e6f7420617574686f72697a65640000000000000000000000000000000000005f82015250565b5f610d2f600e83610982565b9150610d3a82610cfb565b602082019050919050565b5f6020820190508181035f830152610d5c81610d23565b9050919050565b7f416c726561647920766f746564000000000000000000000000000000000000005f82015250565b5f610d97600d83610982565b9150610da282610d63565b602082019050919050565b5f6020820190508181035f830152610dc481610d8b565b9050919050565b7f496e76616c69642063616e6469646174650000000000000000000000000000005f82015250565b5f610dff601183610982565b9150610e0a82610dcb565b602082019050919050565b5f6020820190508181035f830152610e2c81610df3565b9050919050565b7f4e487b71000000000000000000000000000000000000000000000000000000005f52601160045260245ffd5b5f610e6a826108f2565b91507fffffffffffffffffffffffffffffffffffffffffffffffffffffffffffffffff8203610e9c57610e9b610e33565b5b600182019050919050565b7f4e487b71000000000000000000000000000000000000000000000000000000005f52602260045260245ffd5b5f6002820490506001821680610eeb57607f821691505b602082108103610efe57610efd610ea7565b5b50919050565b7f4f6e6c792061646d696e2063616e20646f2074686973000000000000000000005f82015250565b5f610f38601683610982565b9150610f4382610f04565b602082019050919050565b5f6020820190508181035f830152610f6581610f2c565b9050919050565b5f819050815f5260205f209050919050565b5f6020601f8301049050919050565b5f82821b905092915050565b5f60088302610fc87fffffffffffffffffffffffffffffffffffffffffffffffffffffffffffffffff82610f8d565b610fd28683610f8d565b95508019841693508086168417925050509392505050565b5f819050919050565b5f61100d611008611003846108f2565b610fea565b6108f2565b9050919050565b5f819050919050565b61102683610ff3565b61103a61103282611014565b848454610f99565b825550505050565b5f90565b61104e611042565b61105981848461101d565b505050565b5b8181101561107c576110715f82611046565b60018101905061105f565b5050565b601f8211156110c15761109281610f6c565b61109b84610f7e565b810160208510156110aa578190505b6110be6110b685610f7e565b83018261105e565b50505b505050565b5f82821c905092915050565b5f6110e15f19846008026110c6565b1980831691505092915050565b5f6110f983836110d2565b9150826002028217905092915050565b61111282610978565b67ffffffffffffffff81111561112b5761112a610a46565b5b6111358254610ed4565b611140828285611080565b5f60209050601f831160018114611171575f841561115f578287015190505b61116985826110ee565b8655506111d0565b601f19841661117f86610f6c565b5f5b828110156111a657848901518255600182019150602085019450602081019050611181565b868310156111c357848901516111bf601f8916826110d2565b8355505b6001600288020188555050505b50505050505056fea26469706673582212204b62fd61264219c4013fe1d77249cbc6d34767885e0d741f1d0795d31c6ef5e264736f6c63430008150033",
  "immutableReferences": {},
  "source": "// SPDX-License-Identifier: MIT\npragma solidity ^0.8.20;\n\ncontract Voting {\n    struct Candidate {\n        uint id;\n        string name;\n        uint voteCount;\n    }\n\n    struct Voter {\n        bool authorized;\n        bool voted;\n        uint vote;\n    }\n\n    address public admin;\n    string public electionName;\n    mapping(uint => Candidate) public candidates;\n    mapping(address => Voter) public voters;\n    uint public totalVotes;\n    uint public candidateCount;\n\n    constructor(string memory _name) {\n    admin = msg.sender;\n    electionName = _name;\n}\n\n\n    modifier onlyAdmin() {\n        require(msg.sender == admin, \"Only admin can do this\");\n        _;\n    }\n\n    function addCandidate(string memory _name) public onlyAdmin {\n        candidateCount++;\n        candidates[candidateCount] = Candidate(candidateCount, _name, 0);\n    }\n\n    function authorize(address _voter) public onlyAdmin {\n        voters[_voter].authorized = true;\n    }\n\n    function vote(uint _candidateId) public {\n        require(voters[msg.sender].authorized, \"Not authorized\");\n        require(!voters[msg.sender].voted, \"Already voted\");\n        require(_candidateId > 0 && _candidateId <= candidateCount, \"Invalid candidate\");\n\n        voters[msg.sender].voted = true;\n        voters[msg.sender].vote = _candidateId;\n        candidates[_candidateId].voteCount++;\n        totalVotes++;\n    }\n\n    function getResults() public view returns (string memory winnerName, uint winnerVotes) {\n        uint maxVotes = 0;\n        uint winnerId = 0;\n        for (uint i = 1; i <= candidateCount; i++) {\n            if (candidates[i].voteCount > maxVotes) {\n                maxVotes = candidates[i].voteCount;\n                winnerId = i;\n            }\n        }\n        winnerName = candidates[winnerId].name;\n        winnerVotes = candidates[winnerId].voteCount;\n    }\n}\n",
  "sourcePath": "/Users/hithaharish/secure_EVoting/contracts/Voting.sol",
  "compiler": {
    "name": "solc",
    "version": "0.8.21+commit.d9974bed.Emscripten.clang"
  },
  "schemaVersion": "3.4.16",
  "updatedAt": "2025-10-29T12:24:55.767Z",
  "devdoc": {
    "kind": "dev",
    "methods": {},
    "version": 1
  },
  "userdoc": {
    "kind": "user",
    "methods": {},
    "version": 1
  }
}